{
  "blockhash": "0000000000000ae7f9b23444d8d697128204631273599fd3d57f29e7d01f1330",
  "blocktime": 1323371117,
  "confirmations": 766978,
  "hash": "1a6790ee7804b55399d64c96963d319a568311482bb9d9a26492999fcef21604",
  "hex": "01000000011547f17051448dacbe551da7843b1d67cf3b2185468efe2cafbfa1a68a5b9fc3000000008c49304602210091347e2cc01c27dbb54f5d392758514b7cfca591e4ed161ca94aaea40b79317d022100b0f45fa4f0696b045dbd345b99597902623e4441a6afb08e285c6c620cf0c9440141042b6867bf7ca2c459bf73617aa8dfa664a360c8ddc89b467638e65c14659938bbc3b5e793e40719138f7f6e0aff7900472d1d297d2ddde3e5da05487bd50a110affffffff021b8bbc3e000000001976a914f0816ae2ae2d77131890f40f1954ea14cf52cbc388ac04eb721a000000001976a914a5b62ededda27bd36f3ce26f343ecde30ec3b9e588ac00000000",
  "locktime": 0,
  "size": 259,
  "time": 1323371117,
  "txid": "1a6790ee7804b55399d64c96963d319a568311482bb9d9a26492999fcef21604",
  "version": 1,
  "vin": [
    {
      "scriptSig": {
        "asm": "304602210091347e2cc01c27dbb54f5d392758514b7cfca591e4ed161ca94aaea40b79317d022100b0f45fa4f0696b045dbd345b99597902623e4441a6afb08e285c6c620cf0c944[ALL] 042b6867bf7ca2c459bf73617aa8dfa664a360c8ddc89b467638e65c14659938bbc3b5e793e40719138f7f6e0aff7900472d1d297d2ddde3e5da05487bd50a110a",
        "hex": "49304602210091347e2cc01c27dbb54f5d392758514b7cfca591e4ed161ca94aaea40b79317d022100b0f45fa4f0696b045dbd345b99597902623e4441a6afb08e285c6c620cf0c9440141042b6867bf7ca2c459bf73617aa8dfa664a360c8ddc89b467638e65c14659938bbc3b5e793e40719138f7f6e0aff7900472d1d297d2ddde3e5da05487bd50a110a"
      },
      "sequence": 4294967295,
      "txid": "c39f5b8aa6a1bfaf2cfe8e4685213bcf671d3b84a71d55beac8d445170f14715",
      "vout": 0
    }
  ],
  "vout": [
    {
      "n": 0,
      "scriptPubKey": {
        "address": "1NvgD8Kxxm2Tqen24jZXPK65LFBBF2gjNX",
        "asm": "OP_DUP OP_HASH160 f0816ae2ae2d77131890f40f1954ea14cf52cbc3 OP_EQUALVERIFY OP_CHECKSIG",
        "desc": "addr(1NvgD8Kxxm2Tqen24jZXPK65LFBBF2gjNX)#4sk9a77x",
        "hex": "76a914f0816ae2ae2d77131890f40f1954ea14cf52cbc388ac",
        "type": "pubkeyhash"
      },
      "value": 10.52543771
    },
    {
      "n": 1,
      "scriptPubKey": {
        "address": "1G7CjxPHPFjNH9C86HNd78T87vjznq3wTn",
        "asm": "OP_DUP OP_HASH160 a5b62ededda27bd36f3ce26f343ecde30ec3b9e5 OP_EQUALVERIFY OP_CHECKSIG",
        "desc": "addr(1G7CjxPHPFjNH9C86HNd78T87vjznq3wTn)#8l30n9kt",
        "hex": "76a914a5b62ededda27bd36f3ce26f343ecde30ec3b9e588ac",
        "type": "pubkeyhash"
      },
      "value": 4.43738884
    }
  ],
  "vsize": 259,
  "weight": 1036
}